:0604B50000000000000041
:03001700011900CC
:10048F00758910758D3C758BB0D2ABD28ED2AF22E1
:1001610078087C007D007BFF7A0479B57E007F06EC
:100171001200EE750803E4F50D7FF47E0112042AE6
:100181001204AC12038812048F309205530DFE80C5
:1001910003430D01309105530D7F8013430D807B87
:1001A100007A0079081203477FF47E0112042AE5E0
:1001B10019D3943C40D3E4F519FB7A007914120267
:1001C10086E5142515FFE433FE7C00EF2516FFECD0
:1001D1003EFEEF2517FFEC3EFEE518B50710ECB526
:1001E100060C85160985170A85140B85150C7B00ED
:0901F1007A00790812034780909E
:03001B0002044A92
:10044A00C0E0C0D0758D3C758BB00519E519D39401
:0B045A00424003751900D0D0D0E03202
:0A02F700AB0EAA0FA910EF12013F91
:10030100E4F511F512E51325E0F513E4F51120905C
:100311000BE511C394FA5004051180F27F027E00AF
:10032100120003309014431301E4F51130900BE5F2
:1003310011C394FA5004051180F20512E512C39419
:050341000840C2AF13EB
:010346002294
:060286008B0E8A0F8910A7
:10028C00C2907F137E0012042AD2907F017E00124E
:10029C000003D290209053E4FF209009EFC394FA0E
:1002AC0050030F80F4E4FF309009EFC394FA50032D
:1002BC000F80F4120301AB0EAA0FA910EF12012D3F
:1002CC001203019000011202F79000021202F7AB28
:1002DC000EAA0FA9109000031202FDAB0EAA0FA9D3
:0A02EC0010900004EF12013FD290C1
:0102F60022E5
:0504BB000D0C0C0C010A
:10046500E4FEEF3392B1EF25E0FFD2B6A2B5E43357
:080475004207C2B60EBE08EA00
:01047D00225C
:0904AC00C2B6D2B0C2B7D2B3222D
:10047E00C2B0120465AC07AF05120465D2B0AF046A
:01048E00224B
:0603C7008B108A1189125F
:1003CD00C2B0120465AD07E4FCECC395135018AB35
:1003DD00100512E512AA117002051114F91201147B
:0B03ED00FF1204650C80E2D2B0AF05E7
:0103F80022E2
:0C049F00C2B0120465E4FF120465D2B084
:0104AB00222E
:0603F9008B1B8A1C891D0C
:1003FF00C2B0120465AD07E4FCECC3951E5017E4C0
:10040F00FF120465AB1BAA1CA91D8C82758300EF1C
:0A041F0012013F0C80E3D2B0AF05DC
:0104290022B0
:10038800C2B77D3F7F2112047E7F2212047E7D2822
:100398007F2512047E7D077F2612047E7BFF7A0468
:1003A80079BB7513057F301203C77BFF7A0479BBCD
:0F03B8007513057F2A1203C77D0E7F2002047E76
:10034700750E0BC2B77513067FA01203C7D2B7305D
:10035700B307AF0E150EEF70F67F0712049F8F0ECF
:10036700AD0E7F2712047EE50E30E40A7DFF7FE1A4
:1003770012047E7F1022E50E30E5037F20227FFFE7
:010387002253
:10042A00D3EF9400EE6480948040147D6F7C00EDDD
:0F043A001D70011CED4C70F7EF1F70E41E80E188
:010449002290
:10000300D3EF9400EE64809480400800EF1F70F0FB
:030013001E80ED5F
:0100160022C7
:030000000201FA00
:0C01FA00787FE4F6D8FD75811E020241FA
:10001E00E709F608DFFA8046E709F208DFFA803EC4
:10002E0088828C83E709F0A3DFFA8032E309F608B1
:10003E00DFFA8078E309F208DFFA807088828C8319
:10004E00E309F0A3DFFA806489828A83E0A3F608CD
:10005E00DFFA805889828A83E0A3F208DFFA804CA7
:10006E0080D280FA80C680D4806980F2803380107E
:10007E0080A680EA809A80A880DA80E280CA8033E7
:10008E0089828A83ECFAE493A3C8C582C8CCC5835F
:10009E00CCF0A3C8C582C8CCC583CCDFE9DEE7802F
:1000AE000D89828A83E493A3F608DFF9ECFAA9F0AE
:1000BE00EDFB2289828A83ECFAE0A3C8C582C8CC04
:1000CE00C583CCF0A3C8C582C8CCC583CCDFEADE1D
:1000DE00E880DB89828A83E493A3F208DFF980CC7F
:1000EE0088F0EF60010E4E60C388F0ED2402B40478
:1000FE000050B9F582EB2402B4040050AF2323451F
:06010E00822390006E73D5
:10011400BB010689828A83E0225002E722BBFE02E9
:09012400E32289828A83E493221C
:10012D00BB010689828A83F0225002F722BBFE01B1
:02013D00F322AB
:10013F00F8BB010DE58229F582E5833AF583E8F0F6
:10014F00225006E92582C8F622BBFE05E92582C8A2
:02015F00F2228A
:10020600020161E493A3F8E493A34003F68001F2AC
:1002160008DFF48029E493A3F85407240CC8C333F9
:10022600C4540F4420C8834004F456800146F6DFC8
:10023600E4800B0102040810204080900017E47E41
:10024600019360BCA3FF543F30E509541FFEE493BD
:10025600A360010ECF54C025E060A840B8E493A384
:10026600FAE493A3F8E493A3C8C582C8CAC583CAAF
:10027600F0A3C8C582C8CAC583CADFE9DEE780BE67
:01001A0000E5
:00000001FF
