:100F2F00D3EF9400EE6480948040147D6F7C00EDCD
:0F0F3F001D70011CED4C70F7EF1F70E41E80E178
:010F4E002280
:10100A00D3EF9400EE64809480400800EF1F70F0E4
:03101A001E80ED48
:01101D0022B0
:0E103E0081838587898B8D80828486888A8C49
:090DDC0007310008231703071971
:100DA700C29300C29100D29300E4FEEF139292EF38
:100DB700C313FFD29100C291000EBE08EEE4FEED10
:100DC700139292EDC313FDD29100C291000EBE089B
:040DD700EEC29300D5
:010DDB0022F5
:100C5A00C29300C29100D29300E4FDEF139292EF87
:100C6A00C313FFD29100C291000DBD08EE00E4FD4E
:100C7A00A292E433FFC43333335480FCEEC3134CE3
:100C8A00FED29100C291000DBD08E5C29300D29137
:090C9A0000C29200D29200AF06E4
:010CA300222E
:07106C007D807F8E020DA7BD
:100FF400E4FBEB90103E93FF120C5A74312BF8A6CD
:05100400070BBB07ED26
:0110090022C4
:100EEA00E4FD7F8E120DA7E4FCEC90104593FF748D
:100EFA00312CF8E6FD120DA70CBC07ED7D807F8E24
:030F0A00020DA72E
:100CA400D0C7C6DA00000000000000000000000603
:100CB4000009000090006000000000000000000037
:100CC4000000000000000000000000018001C000DE
:100CD400000000000000000000018001C0000000CE
:050CE40000000000000B
:100FAA00D3EF9400EE9400400F7DC77C01DCFEDD98
:080FBA00FAEF1F70EB1E80E846
:010FC200220C
:070EC500120ECCED54F0FF0A
:100ECC00E4FEEFA806088002C333D8FC30E704D256
:0D0EDC00818002C281C282D2820EBE08E572
:010EE90022E6
:0F102F00AD077FF8120EC5EDC454F0FF020ECCD2
:100F0D00AB2DAA2EA92FAF3005308F82758300121D
:030F1D000AFAFFCE
:0F0F2000AD077FFA120EC5EDC454F0FF020ECCE0
:100BB100D2807F3012102F7F0C12102F12104C1286
:100BC1000E727D83120D2D7D85120D2D7BFF7A0C0A
:100BD10079C97D8B7F80120D357BFF7A0C79C97DB8
:100BE1008D7F80120D357F8112102F7F32120F20E1
:100BF1007F30120F207D027F01120F4F7BFF7A0C95
:050C010079A4020F6F51
:0C104C007F0112102F7F017E00020FAA0E
:100F4F00EF70047F808013BF01047F90800CBF027D
:100F5F00047F888005BF03027F98EF2DFF02102FBB
:060F6F008B2B8A2C892D5A
:100F7500E4FCAB2BAA2CA92D8C82758300120AFAEE
:090F8500FF6006120F200C80E948
:010F8E002240
:080D2D007BFF7A0C79A97F809D
:0A0D35008F2B8D2C8B2D8A2E892F19
:100D3F00E4F5307F3412102FE4FCAF2B052B12108B
:100D4F002FAF2C12102F120F0D120F0D0CBC10EA1B
:0F0D5F007F3612102F7F3012102F7F0C02102FB3
:100E72007F3412102FE4FCEC2480FF12102F7F80AD
:100E820012102FE4FBE4FF120F200BBB20F70CBC67
:0C0E920020E57F3612102F7F3002102F59
:0B1058000A01070E010C0C0C0C010D2E
:100FC300E4FEEF3392B1EF25E0FFD2B6A2B5E433EE
:080FD3004207C2B60EBE08EA97
:010FDB0022F3
:09106300C2B6D2B0C2B7D2B3226A
:10101E00C2B0120FC3AC07AF05120FC3D2B0AF04EC
:01102E00229F
:060E0F008B2C8A2D892EB8
:100E1500C2B0120FC3AD07E4FCECC3952F5018AB5D
:100E25002C052EE52EAA2D7002052D14F9120AE1C6
:0B0E3500FF120FC30C80E2D2B0AF052B
:010E4000228F
:0C000600C2B0120FC3E4FF120FC3D2B04F
:0100120022CB
:060E41008B278A28892995
:100E4700C2B0120FC3AD07E4FCECC3952A5017E4F8
:100E5700FF120FC3AB27AA28A9298C82758300EF3D
:0A0E6700120B270C80E3D2B0AF0598
:010E7100225E
:100B4900C2B77BFF7A107958752F057F2A120E0FCD
:100B59007BFF7A10795D752F057F2B120E0F7BFFB6
:100B69007A107962752F017F2C120E0F7D067F3165
:100B790012101E7F3212101E7F3312101E7D3F7F0E
:100B89002112101E7F2212101E7D287F2512101E91
:100B99007D077F2612101E7D0F7F2012101E7DFFFC
:080BA9007F2712101ED2B722B3
:060D6E008B238A24892575
:100D74007F07120006AB07C2B7AD037F2712101E10
:100D8400EB30E61AAB23AA24A925752A067F611243
:100D94000E417DFF7FE212101ED2B77F0022D2B730
:020DA4007F01CD
:010DA600222A
:100CE900D2BB00B6FE00C8FD00CBC400CEE500C1F2
:100CF900F900CCEC00A2F100A2F200A2F300A1E6F7
:100D09000025524800D3EA00CEB4C9CFB4ABCAFD1E
:100D1900BEDD0020202020C8ABB6BCCAD5B5BD2099
:040D29002020200066
:100DE50006090000000000000611000000000000D8
:100DF5000617000000000000061D000000000000AE
:090E0500011000010F00010800BA
:100FDC00758910758D3C758BB0D2ABD28ED288D200
:080FEC00A8D28AD2AAD2AF22DA
:100678007D02E4FF120F4F7BFF7A0D7907120F6F8F
:100688007D04E4FF120F4F7BFF7A0D790A120F6F7A
:100698007D07E4FF120F4F7BFF7A0D790E120F6F63
:1006A800E4FD7F01120F4F7BFF7A0C79FE120F6F6A
:1006B800E51275F00A842430FF120F20E51275F058
:1006C8000A84E5F02430FF120F207F2E120F20E558
:1006D8001375F00A84E5F02430FF120F207D047FA3
:1006E80001120F4FE51475F00A842430FF120F2011
:1006F800E51475F00A84E5F02430FF120F207F2EF0
:10070800120F20E51575F00A84E5F02430FF120F6A
:10071800207D077F01120F4FE5167E0060047F01E0
:1007280080027F00EF64014E70047F5980027F4E83
:10073800120F20E4FD7F02120F4F7BFF7A0D790123
:10074800120F6FE51875F00A842430FF120F20E5A8
:100758001875F00A84E5F02430FF120F207F2E125E
:100768000F20E51975F00A84E5F02430FF120F20F8
:100778007D047F02120F4FE51A75F00A842430FFBA
:10078800120F20E51A75F00A84E5F02430FF120FE5
:10079800207F2E120F20E51B75F00A84E5F0243027
:1007A800FF120F207D077F02120F4FE51C7E0060AD
:1007B800047F0180027F00EF64014E70047F59803E
:1007C800027F4E120F20E4FD7F03120F4F7BFF7A4A
:1007D8000D7904120F6FE51E75F00A842430FF129C
:1007E8000F20E51E75F00A84E5F02430FF120F2073
:1007F8007F2E120F20E51F75F00A84E5F02430FFE4
:10080800120F207D047F03120F4FE52075F00A8434
:100818002430FF120F20E52075F00A84E5F024301B
:10082800FF120F207F2E120F20E52175F00A84E5B4
:10083800F02430FF120F207D077F03120F4FE522AF
:100848007E0060047F0180027F00EF64014E700427
:100858007F5980027F4E120F207F327E00020F2FB9
:10086800E4FD7F03120F4FE5116401600B7BFF7AF3
:100878000C79FE120F6F800A7F20120F207F201242
:100888000F20E5176402600B7BFF7A0D7901120FC8
:100898006F800A7F20120F207F20120F20E51D6431
:1008A80003600B7BFF7A0D7904120F6F800A7F209B
:1008B800120F207F20120F20E511B4010BE517B4A9
:1008C8000206E51D6403600F7D037F03120F4F7B53
:1008D800FF7A0D7911800DE4FD7F03120F4F7BFF26
:1008E8007A0D791C120F6FE516600EE51C600AE59B
:1008F8002260067E007F0180047E007F00EF640195
:100908004E7011FD7F01120F4F7BFF7A0D790E1289
:100918000F6F8011E4FD7F01120F4F7F20120F200F
:100928007F20120F207D057F01120F4F7F20120FAD
:10093800207F20120F207F20120F207F20120F20EF
:100948007F20120F207F20120F20E4F511F517F5F4
:020958001D225E
:10042E00E510B53101227F8A12102FE533C4540F27
:10043E0060052430FF80027F20120F20E533540F19
:10044E002430FF120F207D047F02120F4FE532C4BD
:10045E00540F60052430FF80027F20120F20E532FA
:10046E00540F2430FF120F207D067F02120F4FE52E
:10047E0031C4540F60052430FF80027F20120F20FC
:10048E00E531540F2430FF120F208531107F821278
:10049E00102FE537C4540F2430FF120F20E53754C8
:1004AE000F2430FF120F207D04E4FF120F4FE535AD
:1004BE00C4540F2430FF120F20E535540F2430FFA3
:1004CE00120F207D06E4FF120F4FE534C4540F24A3
:1004DE0030FF120F20E534540F2430FF120F207D11
:1004EE00047F01120F4FE4F52BE536540714B407C1
:1004FE0000400302067790051275F003A4C583250C
:10050E00F0C5837302052702055A02058B0205BC4E
:10051E000205ED02061B020649AF2B052BEF3395A4
:10052E00E0FE74E92FF582740C3EF583E4937003BC
:10053E00020677AF2BEF3395E0FE74E82FF5827449
:10054E000C3EF583E493FF120F2080CDAF2BEF33DB
:10055E0095E0FE74EC2FF582740C3EF583E49370F7
:10056E0003020677052BEF3395E0FE74EC2FF58230
:10057E00740C3EF583E493FF120F2080CFAF2BEF68
:10058E003395E0FE74EF2FF582740C3EF583E49301
:10059E007003020677052BEF3395E0FE74EF2FF50F
:1005AE0082740C3EF583E493FF120F2080CFAF2BA5
:1005BE00EF3395E0FE74F22FF582740C3EF583E472
:1005CE00937003020677052BEF3395E0FE74F22F3E
:1005DE00F582740C3EF583E493FF120F2080CFAFAB
:1005EE002BEF3395E0FE74F52FF582740C3EF583F8
:1005FE00E4936075052BEF3395E0FE74F52FF582CD
:10060E00740C3EF583E493FF120F2080D2AF2BEFD4
:10061E003395E0FE74F82FF582740C3EF583E49367
:10062E006047052BEF3395E0FE74F82FF582740CBE
:10063E003EF583E493FF120F2080D2AF2BEF33955C
:10064E00E0FE74FB2FF582740C3EF583E493601983
:10065E00052BEF3395E0FE74FB2FF582740C3EF5FF
:09066E0083E493FF120F2080D2F7
:010677002260
:10001E00E4F52BF52CF52DF52E7D02FF120F4F7FFB
:10002E000F12102F20A207D290752B0180F6E52B10
:10003E00640160030201C7052E052DE52E75F00A39
:10004E00120ABF6013E52E75F00A120ABFAFF0EF69
:10005E0070067406252DF52DE52C702AD3E52E6439
:10006E008094E34005E4F52DF52E852D37E537C454
:10007E00540F2430FF120F20E537540F2430FF1297
:10008E000F207D028060E52C6401702BD3E52E6479
:10009E0080948C4006752D01752E01852D35E53524
:1000AE00C4540F2430FF120F20E535540F2430FFB7
:1000BE00120F207D04802FE52C6402702ED3E52EC6
:1000CE006480949F4006752D01752E01852D34E5B3
:1000DE0034C4540F2430FF120F20E534540F243053
:1000EE00FF120F207D06E4FF0201C1E52C640370B0
:1000FE002ED3E52E648094874006752D01752E0152
:10010E00852D36E536C4540F2430FF120F20E53608
:10011E00540F2430FF120F207D047F010201C1E530
:10012E002C6404702CD3E52E648094974005E4F57E
:10013E002DF52E852D33E533C4540F2430FF120FC9
:10014E0020E533540F2430FF120F207D027F0280F2
:10015E0062E52C6405702CD3E52E648094BB4005BB
:10016E00E4F52DF52E852D32E532C4540F2430FFE3
:10017E00120F20E532540F2430FF120F207D047F22
:10018E00028030E52C6406702DD3E52E648094BB7E
:10019E004005E4F52DF52E852D31E531C4540F249F
:1001AE0030FF120F20E531540F2430FF120F207D47
:1001BE00067F02120F4FE4F52B20A007D290752B6D
:1001CE000280F6E52B64026003020356152E152DF0
:1001DE00E52E75F00A120ABFAFF0BF090674FA25B4
:1001EE002DF52DE52C702BC3E52E648094805006E2
:1001FE00752D99752E63852D37E537C4540F243030
:10020E00FF120F20E537540F2430FF120F207D020E
:10021E008060E52C6401702BC3E52E6480948150C0
:10022E0006752D12752E0C852D35E535C4540F240B
:10023E0030FF120F20E535540F2430FF120F207DB2
:10024E0004802FE52C6402702EC3E52E6480948109
:10025E005006752D31752E1F852D34E534C4540F7F
:10026E002430FF120F20E534540F2430FF120F20DC
:10027E007D06E4FF020350E52C6403702EC3E52EC9
:10028E00648094815006752D07752E07852D36E5F1
:10029E0036C4540F2430FF120F20E536540F24308D
:1002AE00FF120F207D047F01020350E52C640470C1
:1002BE002DC3E52E648094805006752D23752E1760
:1002CE00852D33E533C4540F2430FF120F20E53350
:1002DE00540F2430FF120F207D027F028064E52C24
:1002EE006405702DC3E52E648094805006752D59DB
:1002FE00752E3B852D32E532C4540F2430FF120F7C
:10030E0020E532540F2430FF120F207D047F02802F
:10031E0031E52C6406702EC3E52E64809480500661
:10032E00752D59752E3B852D31E531C4540F243072
:10033E00FF120F20E531540F2430FF120F207D06DF
:10034E007F02120F4FE4F52B20A307D290752B03DB
:10035E0080F6E52B6403704F052CE52C70047D02AE
:10036E008012E52CB401057D04E48008E52CB4026E
:10037E00067D06E4FF802AE52CB403067D047F018A
:10038E00801FE52CB404067D027F028014E52CB498
:10039E0005067D047F028009E52CB406077D067FE5
:1003AE0002120F4FE4F52B20A107D290752B04807B
:1003BE00F6E52B64047052E52C7003752C07D52CD2
:1003CE00047D028010E52CB401047D048007E52C29
:1003DE00B402067D06E4FF802AE52CB403067D04F4
:1003EE007F01801FE52CB404067D027F028014E598
:1003FE002CB405067D047F028009E52CB406077D2A
:10040E00067F02120F4FE4F52BC290E52C640760B5
:0F041E0003020032120EEA7F0C12102F75080134
:01042D0022AC
:100C06007508017FF47E01120F2F12106312106C0B
:100C1600120BB1C290120B49120FDCE508700312D9
:100C2600001EE508B40106120FF412042EE508B4FE
:100C3600051312104C1206787FAC7E0D120F2F1280
:100C46000BB1750801E50FD3945040CFE4F50F12B0
:040C5600086880C7E3
:03000300020E9E4C
:100E9E0020A507D29075080080F620A607D290757F
:100EAE00080580F620A40DD290751600751C0075ED
:070EBE00220080F0C2903217
:0300130002095A85
:10095A00C0E0C0F0C083C082C0D075D000C000C063
:10096A0001C002C003C004C005C006C0077B007AEC
:10097A00007909120D6EC290E5096401702B850990
:10098A0011850A12850B13850C14850D15850E1613
:10099A00E516D394014012D2907D057F01120F4FC4
:1009AA007BFF7A0C79FE120F6FE5096402702B85C2
:1009BA000917850A18850B19850C1A850D1B850ED2
:1009CA001CE51CD394014012D2907D067F01120FC0
:1009DA004F7BFF7A0D7901120F6FE5096403702BC3
:1009EA0085091D850A1E850B1F850C20850D21850D
:1009FA000E22E522D394014012D2907D077F011284
:100A0A000F4F7BFF7A0D7904120F6F750900D0071B
:100A1A00D006D005D004D003D002D001D000D0D067
:090A2A00D082D083D0F0D0E0327C
:03001B00020F8F42
:100F8F00C0E0C0D0758D3C758BB0050FE50FD394C5
:0B0F9F00674003750F00D0D0D0E03297
:03000000020A33BE
:0C0A3300787FE4F6D8FD758137020A7A5E
:100ABF00C2D530F707B2D563F0FF05F030E70CB2BF
:100ACF00D5F4048463F0FF05F080018430D502F47F
:020ADF000422EF
:100AE100BB010689828A83E0225002E722BBFE0213
:090AF100E32289828A83E4932246
:100AFA00BB010CE58229F582E5833AF583E02250B1
:100B0A0006E92582F8E622BBFE06E92582F8E222FA
:0D0B1A00E58229F582E5833AF583E4932214
:100B2700F8BB010DE58229F582E5833AF583E8F004
:100B3700225006E92582C8F622BBFE05E92582C8B0
:020B4700F22298
:100A3F00020C06E493A3F8E493A34003F68001F2BB
:100A4F0008DFF48029E493A3F85407240CC8C333B8
:100A5F00C4540F4420C8834004F456800146F6DF87
:100A6F00E4800B0102040810204080900DDCE47E2E
:100A7F00019360BCA3FF543F30E509541FFEE4937C
:100A8F00A360010ECF54C025E060A840B8E493A343
:100A9F00FAE493A3F8E493A3C8C582C8CAC583CA6E
:100AAF00F0A3C8C582C8CAC583CADFE9DEE780BE26
:010E0E0000E3
:00000001FF
